:04000000ACEF09F068
:10116800C58AC5881200C586DBEC08F01200C58266
:10117800DBEC08F01200C580DBEC08F01200C58437
:10118800DBEC08F01200B7EC08F0B4EC08F0C9503A
:101198001200016E01C0C9FFDBEC08F01200935089
:1011A8001F0B936E93501E09936EF19E12009EA61C
:1011B800E0EF08F0E2EF08F0DBEF08F09E9612008F
:1011C800016E9EA8EAEF08F0ECEF08F0E5EF08F0F2
:1011D80001C0ADFF120094869488280EC66E310EA9
:1011E800C86EC79CC78E9E96A19612000A6E000E06
:1011F800016E09506FEC09F0010E016E0A506FEC98
:1012080009F012005DEC0BF013EC09F0D3EC08F0D8
:101218005AEC09F0EFEC08F0F0EC09F01200C08E7F
:10122800C09AC088C096C090C082C094C292C19A29
:10123800C198C46AC36AC2801200036EBFEC08F08A
:10124800D00ECDEC08F00350CDEC08F00250CDECF8
:1012580008F0C3EC08F01200026EBFEC08F0A00E14
:10126800CDEC08F00250CDEC08F0BBEC08F0A10E74
:10127800CDEC08F0C7EC08F0036EC3EC08F003509F
:101288001200026EBFEC08F0D00ECDEC08F0025050
:10129800CDEC08F0BBEC08F0D10ECDEC08F0C7ECB3
:1012A80008F0036EC3EC08F003501200948E949C6F
:1012B800AC9CAC8AAC98AC96AC84AB8EAB9CAB883F
:1012C800B89EB896B892B890810EAF6E9D889E98D9
:1012D8009D8A9E9A1200026E01B075EF09F078EFB0
:1012E80009F0828279EF09F0829202C083FF82843A
:1012F8008294958E828082928284829483BE87EFC4
:1013080009F089EF09F080EF09F08290959E1200AC
:10131800076EBFEC08F0A00ECDEC08F00750CDEC3E
:1013280008F00450CDEC08F0C3EC08F00B0E066E84
:10133800B80E056E0506D8A00606052806E106289B
:10134800D8A4A9EF09F0ABEF09F09EEF09F012005D
:10135800290EF66E140EF76E000EF86E00EE60F0B1
:1013680010EE5DF00900F5CFEEFFE550E150FAE12F
:1013780000EEBDF0130EEE6AE806FDE100EE58F04F
:10138800080EEE6AE806FDE1000EF86E000168EF4F
:101398000CF0076E07C003F0D8900336D8900336D8
:1013A800C250C30B0310C26EC282C2B2DEEF09F094
:1013B800E0EF09F0D9EF09F0C350C4CF03F0046A95
:1013C80003C004F0036A0310056E0450066E05C0DE
:1013D80001F006C002F01200000E45EC09F0046EA0
:1013E80004508009026E000E21EC09F0020E45EC53
:1013F80009F0046E04504009026E020E21EC09F057
:10140800930E026E070E21EC09F0000E45EC09F070
:10141800046E04507F0B026E000E21EC09F01200DE
:101429004F4E00475200474E0047310047320047B0
:101439003300473400473500434F000100566965C2
:10144900775F6C6F672020202000000000446F77D1
:101459006E6C6F61645F6C6F6700000000436C65C0
:1014690061725F6C6F6700000000000000536574D3
:101479005F74696D65000000000000000059EF0A03
:10148900F002C0F6FF03C0F7FFF86A050EF7640320
:10149900D00800F55005D0F6CFE1FFF7CFE2FFE71E
:1014A90050E4EC08F0024A032A02C0F6FF03C0F731
:1014B900FFF86A050EF76403D00800F55005D0F669
:1014C900CFE1FFF7CFE2FFE7500009D8A46FEF0A99
:1014D900F071EF0AF045EF0AF01200AF0E036E2F1C
:1014E9000E046E800E056EA5EC0AF0C00E036E2F79
:1014F9000E046EC00E056EA5EC0AF0200E076EA153
:101509000E086E070E096E000E0A6E0706000E0819
:101519005A095A0A5A07280AE1082808E109280637
:10152900E10A28D8A49BEF0AF09DEF0AF08AEF0A96
:10153900F05C6A596A0650D96EDA6A010EDF6E12DA
:1015490000000E016E05506FEC09F0C2EF0AF001C0
:101559000E016E03C0F6FF04C0F7FFF86A050EF727
:101569006403D00800F55005D0F6CFE1FFF7CFE2CC
:10157900FFE7506FEC09F0034A042A03C0F6FF04A1
:10158900C0F7FFF86A050EF76403D00800F55005A7
:10159900D0F6CFE1FFF7CFE2FFE7500009D8A4D892
:1015A900EF0AF0DAEF0AF0ACEF0AF01200016E016F
:1015B90050D8A4E2EF0AF0E4EF0AF0E8EF0AF05499
:1015C900EC0DF01AEF0BF00104D8A4EEEF0AF0F0DD
:1015D900EF0AF019EF0BF054EC0DF0026E0250D83F
:1015E900B4F9EF0AF0FBEF0AF00CEF0BF000017B06
:1015F900517C11D8B403EF0BF005EF0BF00CEF0B96
:10160900F0000E7C6F000E7B6F02501AEF0BF00298
:1016190050D8A412EF0BF014EF0BF019EF0BF000F8
:101629000E00017C6F010E7B6F000E1200020E4549
:10163900EC09F00001C16F010E45EC09F00001C28F
:101649006F000E45EC09F00001C36FC1AD2FEF0B20
:10165900F031EF0BF03CEF0BF0C1390F0B010B3000
:101669000FC76FC1510F0B300FC86F45EF0BF0C19A
:10167900390F0B030B300FC76FC1510F0B300FC858
:101689006F3A0EC96FC2390F0B0F0B300FCA6FC2F9
:10169900510F0B300FCB6F3A0ECC6FC3390F0B0FB5
:1016A9000B300FCD6FC3510F0B300FCE6FCF6B12B5
:1016B90000956A9450F80B946E8290C30E036ECD18
:1016C9000EE82EFED7032EFCD70000000E016E3364
:1016D9000E6FEC09F01B0E036E9E0EE82EFED7036B
:1016E9002EFCD700D0000E016E330E6FEC09F0A668
:1016F9000EE82EFED700D0000E016E330E6FEC09F6
:10170900F000D000D00000000E016E020E6FEC094F
:10171900F0A60EE82EFED700D0000E016E380E6F2F
:10172900EC09F0A60EE82EFED700D0000E016E01DE
:101739000E6FEC09F0040E036E3E0EE82EFED70381
:101749002EFCD7000E016E0C0E6FEC09F0A60EE808
:101759002EFED700D01200066A02BEB8EF0BF0B613
:10176900EF0BF0BEEF0BF0016C021ED8B0022A019C
:101779000E066E04BEC5EF0BF0C3EF0BF0C9EF0BFD
:10178900F0036C041ED8B0042A03500410D8B4D056
:10179900EF0BF0D2EF0BF0F6EF0BF0010E056EDA5E
:1017A900EF0BF0D89003360436052A04AEDFEF0BB1
:1017B900F0E1EF0BF0D6EF0BF00350015C0450029F
:1017C90058D8A0EAEF0BF0ECEF0BF0F0EF0BF003B9
:1017D90050015E0450025AD89004320332052EE1BA
:1017E900EF0BF00650D8B4FCEF0BF0FEEF0BF00254
:1017F900EF0CF0016C021ED8B0022A01C001F00200
:10180900C002F01200066A04BE0FEF0CF00DEF0CD7
:10181900F015EF0CF0036C041ED8B0042A010E0673
:101829006E02BE1CEF0CF01AEF0CF022EF0CF00167
:101839006C021ED8B0022A010E061A000E086E00AC
:101849000E076E03500410D8B42DEF0CF02FEF0CD7
:10185900F057EF0CF0010E056E37EF0CF0D890033E
:10186900360436052A04AE3CEF0CF03EEF0CF0339B
:10187900EF0CF0D890073608360350015C0450028B
:1018890058D8A04AEF0CF04CEF0CF051EF0CF003D4
:1018990050015E0450025A0780D890043203320581
:1018A9002E3EEF0CF00650D8B45DEF0CF05FEF0C54
:1018B900F063EF0CF0076C081ED8B0082A07C001C6
:1018C900F008C002F0120006EC09F0576A1BEC0B95
:1018D900F0010EDBEC0AF0566E5750D8A477EF0CE6
:1018E900F079EF0CF080EF0CF0570E326E5650E5A0
:1018F900EC0FF06BEF0CF05704D8A486EF0CF088CE
:10190900EF0CF08FEF0CF0570E0B6E5650F7EC11F1
:10191900F06BEF0CF0020E5718D8A496EF0CF09864
:10192900EF0CF09FEF0CF0570E0B6E5650E0EC10D9
:10193900F06BEF0CF0030E5718D8A4A6EF0CF0A823
:10194900EF0CF0AEEF0CF0570E096E6AEC0EF06B6F
:10195900EF0CF0040E5718D8A4B5EF0CF0B7EF0C44
:10196900F0BDEF0CF0570E066E72EC0AF06BEF0C3F
:10197900F0050E5718D8A4C4EF0CF0C6EF0CF0CD43
:10198900EF0CF0570E0B6E565008EC15F06BEF0C80
:10199900F06BEF0CF000EF00F02A342B34316E318C
:1019A90050D8A4DAEF0CF0DCEF0CF0E6EF0CF00005
:1019B9000E286E000E296E000E2A6E000E2B6E5335
:1019C900EF0DF028C02CF029C02DF02AC02EF02BE5
:1019D900C02FF0200EF6EF0CF0D8902F322E322DBA
:1019E900322C32E82EF1EF0CF02C50306E2A8EFF9B
:1019F9000E2816FF0E2916FF0E2A16000E2B169614
:101A09000E315E31BE0DEF0DF00BEF0DF023EF0D32
:101A1900F03150800A970FD8B015EF0DF017EF0D80
:101A2900F019EF0DF0DCEF0CF0D8902B322A3229A7
:101A3900322832313E19EF0DF03BEF0DF01F0E3118
:101A49006429EF0DF02BEF0DF033EF0DF0DCEF0C07
:101A5900F0D890283629362A362B3631063150D817
:101A6900A439EF0DF03BEF0DF02DEF0DF03050D80C
:101A7900B441EF0DF043EF0DF04BEF0DF02B1E2AA3
:101A89001E291E286C000E29222A222B2228C02852
:101A9900F029C029F02AC02AF02BC02BF0120081AE
:101AA9009A818C818E81B25CEF0DF05EEF0DF06151
:101AB900EF0DF0010ED7EF0DF081B466EF0DF06870
:101AC900EF0DF06BEF0DF0040ED7EF0DF081B6704E
:101AD900EF0DF072EF0DF075EF0DF0070ED7EF0D6A
:101AE900F081B87AEF0DF07CEF0DF07FEF0DF00A81
:101AF9000ED7EF0DF0818A819C818E81B287EF0D1F
:101B0900F089EF0DF08CEF0DF0020ED7EF0DF0819B
:101B1900B491EF0DF093EF0DF096EF0DF0050ED7A0
:101B2900EF0DF081B69BEF0DF09DEF0DF0A0EF0DDD
:101B3900F0080ED7EF0DF081B8A5EF0DF0A7EF0D66
:101B4900F0AAEF0DF00B0ED7EF0DF0818A818C8191
:101B59009E819E81B2B3EF0DF0B5EF0DF0B8EF0D98
:101B6900F0030ED7EF0DF081B4BDEF0DF0BFEF0D0F
:101B7900F0C2EF0DF0060ED7EF0DF081B6C7EF0DED
:101B8900F0C9EF0DF0CCEF0DF0090ED7EF0DF08194
:101B9900B8D1EF0DF0D3EF0DF0D6EF0DF00C0ED755
:101BA900EF0DF0000E12005A0E5C64DEEF0DF0E04E
:101BB900EF0DF0F6EF0DF05C6A590E5C64E7EF0D7E
:101BC900F0E9EF0DF0EBEF0DF0F6EF0DF05C500AD8
:101BD9000F30EC09F0046E5C508CEC09F05C2AE1E2
:101BE900EF0DF00950D96EDA6ADF500D6E0950D940
:101BF9006EDA6A010ED926DF500E6E0950D96EDAF7
:101C09006A030ED926DF500F6E0950D96EDA6A04BD
:101C19000ED926DF50106E0950D96EDA6A060ED930
:101C290026DF50116E0950D96EDA6A070ED926DF00
:101C390050126E0C50030D0B50F324D96EDA6ADF83
:101C490050136E0C50030D0B50F324D96EDA6A0150
:101C59000ED926DF50146E0AC001F0026A000E0484
:101C69006E0A0E036E07EC0CF00150300F156E0A68
:101C7900C001F0026A000E046E0A0E036EB0EC0B8E
:101C8900F00150300F166E000E186E000E176E1709
:101C9900500D0FD96EDA6ADF50046E5C5017248C30
:101CA900EC09F0174A182A18BE64EF0EF01850090B
:101CB900E10A0E175CD8A064EF0EF066EF0EF04C47
:101CC900EF0EF05C500A0F5C6E1200890E026E2F47
:101CD9000E036E43EC0AF0CEEF0EF05850300F11A0
:101CE9006E200E126E58500A0DF35030EC09F013A5
:101CF9006E58500A0DF32830EC09F0146E3A0E159F
:101D09006E58500A0DF350020F30EC09F0166E5858
:101D1900500A0DF350030F30EC09F0176E3A0E1804
:101D29006E58500A0DF350040F30EC09F0196E5833
:101D3900500A0DF350050F30EC09F01A6E200E1BF6
:101D49006E58500A0DF350060F30EC09F01C6E580E
:101D5900500A0DF350070F30EC09F01D6E200E1ECE
:101D69006E58500A0DF350080F30EC09F01F6E58E9
:101D7900500A0DF350090F30EC09F0206E0A0E21BC
:101D89006E0D0E226E236A110E026E036A43EC0A6F
:101D9900F0582A5CC001F0026A000E046E0A0E03B4
:101DA9006E07EC0CF058500A6E0B6A01500A5C0B76
:101DB90050800A0C6E0250800A0C58D8A0E7EF0E2A
:101DC900F0E9EF0EF072EF0EF0200E0D6EA10E0E7F
:101DD9006E070E0F6E000E106E0D06000E0E5A0FD6
:101DE9005A105A0D280AE10E2808E10F2806E110B9
:101DF90028D8A402EF0FF004EF0FF0F1EF0EF0096D
:101E090050D96EDA6A010EDF6E586A1200096E093E
:101E190050D8B412EF0FF014EF0FF036EF0FF004B3
:101E2900BE1BEF0FF019EF0FF036EF0FF001C005F1
:101E3900F002C006F003C007F004C008F0051E0652
:101E49001E071E081E052A000E0622072208220563
:101E5900C00BF006C00CF007C00DF008C00EF03E34
:101E6900EF0FF001C00BF002C00CF003C00DF0043D
:101E7900C00EF00150021003100410D8A447EF0F50
:101E8900F049EF0FF053EF0FF0000E016E000E0254
:101E99006E000E036E000E046EE4EF0FF0960E0A4C
:101EA9006E5DEF0FF00A2AD8900E320D320C320B0C
:101EB90032000E0B14056E000E0C14066E000E0D8A
:101EC90014076EFE0E0E14086E0550061007100852
:101ED90010D8A472EF0FF074EF0FF057EF0FF082E4
:101EE900EF0FF00A2A010E0B26000E0C220D220E0E
:101EF90022D8900E320D320C320B32000E0B140523
:101F09006E000E0C14066E000E0D14076EFF0E0EF9
:101F190014086E0550061007100810D8A497EF0F83
:101F2900F099EF0FF076EF0FF0A1EF0FF00A06D856
:101F3900900B360C360D360E360DBEA6EF0FF0A8F7
:101F4900EF0FF0B0EF0FF0020E0A60AEEF0FF0B036
:101F5900EF0FF09BEF0FF00AB0B5EF0FF0B7EF0FEF
:101F6900F0B8EF0FF00D9ED8900A320AC005F006BE
:101F79006A076A086A05C008F0076A066A056A05F9
:101F8900500B1206500C1207500D1208500E120970
:101F990050D8B4D2EF0FF0D4EF0FF0DCEF0FF0040C
:101FA900BEDBEF0FF0D9EF0FF0DCEF0FF00E8E0B69
:101FB900C001F00CC002F00DC003F00EC004F01215
:101FC90000546E20EE60F010EE34F01A0EDBCFE311
:101FD900FFE806FCE2040ECDEC09F001C04FF00267
:101FE900C050F0AE0E136E470E146E250E156E41DD
:101FF9000E166E4FC001F050C002F0036A046A0069
:102009000E0BEC0FF001C00FF002C010F003C0116D
:10201900F004C012F040EC13F00FC028F010C029F2
:10202900F011C02AF012C02BF0D1EC0CF028505559
:102039006E080E5B18D8A424EF10F026EF10F047B5
:10204900EF10F05404D8B42CEF10F02EEF10F03745
:10205900EF10F0020E5418D8A435EF10F037EF1036
:10206900F0A4EF10F0020E5B6EC70E096E55C00AA0
:10207900F0340E0B6E020E0C6ED8EC0DF0A4EF10BE
:10208900F0A4EF10F05404D8A44DEF10F04FEF1066
:10209900F064EF10F0070E5B6055EF10F057EF108A
:1020A900F058EF10F05B2AC70E096E55C00AF034DC
:1020B9000E0B6E5BC00CF0D8EC0DF0A4EF10F00223
:1020C9000E5418D8A46BEF10F06DEF10F078EF10E4
:1020D900F0010E5B6473EF10F075EF10F058EF101C
:1020E900F05B0658EF10F0030E5418D8A47FEF10D8
:1020F900F081EF10F08FEF10F0080E5B6EC70E093C
:102109006E55C00AF0340E0B6E080E0C6ED8EC0D2D
:10211900F0A4EF10F0040E5418D8A496EF10F0981C
:10212900EF10F045EF10F03250D96EDA6A010EDF88
:102139006E000E016E010E6FEC09F0DFEF10F05525
:10214900C001F0026A000E046E0A0E036E07EC0C61
:10215900F00150300F516E55C001F0026A000E04B3
:102169006E0A0E036EB0EC0BF00150300F526E5335
:102179006AE20E036E2F0E046E800E056EA5EC0A40
:10218900F0C70E036E046AC00E056EA5EC0AF05185
:102199000E036E046ACE0E056EA5EC0AF05B5003C1
:1021A9000DF350340F336E33C003F0046ACA0E05C1
:1021B9006EA5EC0AF01200156E020E1518D8A4E8E7
:1021C900EF10F0EAEF10F00CEF11F05CC001F00233
:1021D9006A000E046E0A0E036E07EC0CF0FF0E0186
:1021E900240C6EFF0E02200D6E59500E6E0F6A0CF4
:1021F900500E5C0F50800A106E0D50800A1058D88E
:10220900B009EF11F00BEF11F00CEF11F0592A158D
:1022190004D8A412EF11F014EF11F01DEF11F059C9
:1022290050D8B41AEF11F01CEF11F01DEF11F0594D
:10223900065C50D8A423EF11F025EF11F057EF11E8
:10224900F09D0E036E2F0E046E800E056EA5EC0A2E
:10225900F0C00E036E2F0E046EC00E056EA5EC0ABB
:10226900F0200E116EA10E126E070E136E000E14E1
:102279006E1106000E125A135A145A11280AE11245
:102289002808E1132806E11428D8A44EEF11F050CC
:10229900EF11F03DEF11F00B50D96EDA6A010EDF44
:1022A9006EF6EF11F0040E1518D8A45EEF11F06068
:1022B900EF11F06DEF11F0000E016E010E6FEC09D8
:1022C900F00B50D96EDA6A010EDF6E596AF6EF111A
:1022D900F0D10E036E2F0E046E800E056EA5EC0A6A
:1022E900F0C00E096E5950300FFAEC08F0C10E0912
:1022F9006E200EFAEC08F0C20E096E59500A0DF361
:102309005030EC09F0FAEC08F0C30E096E59500A86
:102319000DF32830EC09F0FAEC08F0C40E096E3A16
:102329000EFAEC08F0C50E096E59500A0DF3500269
:102339000F30EC09F0FAEC08F0C60E096E59500A94
:102349000DF350030F30EC09F0FAEC08F0C70E0951
:102359006E3A0EFAEC08F0C80E096E59500A0DF3E0
:1023690050040F30EC09F0FAEC08F0C90E096E5967
:10237900500A0DF350050F30EC09F0FAEC08F0CAD9
:102389000E096E200EFAEC08F0CB0E096E59500AB0
:102399000DF350060F30EC09F0FAEC08F0CC0E09F9
:1023A9006E59500A0DF350070F30EC09F0FAEC089A
:1023B900F0CD0E096E200EFAEC08F0CE0E096E591A
:1023C900500A0DF350080F30EC09F0FAEC08F0CF81
:1023D9000E096E59500A0DF350090F30EC09F0FA45
:1023E900EC08F012000E6E0E04D8A4FEEF11F000F6
:1023F900EF12F021EF12F05A50D8B406EF12F0089C
:10240900EF12F017EF12F00001C651D8A40FEF1226
:10241900F011EF12F017EF12F05A06000E016E01DB
:102429000E6FEC09F00001C605D8A41EEF12F020CA
:10243900EF12F021EF12F0C66B020E0E18D8A42885
:10244900EF12F02AEF12F04CEF12F0020E5A603040
:10245900EF12F032EF12F041EF12F00001C605D889
:10246900A439EF12F03BEF12F041EF12F05A2A00B3
:102479000E016E010E6FEC09F00001C651D8A44897
:10248900EF12F04AEF12F04CEF12F0010EC66F0492
:102499000E0E18D8A453EF12F055EF12F0F1EF1207
:1024A900F00001C651D8A45CEF12F05EEF12F09B68
:1024B900EF12F05A50D8A464EF12F066EF12F072DE
:1024C900EF12F00B50D96EDA6A020EDF6E000E01C0
:1024D9006E010E6FEC09F03FEF13F05A04D8A4789F
:1024E900EF12F07AEF12F086EF12F00B50D96EDA94
:1024F9006A030EDF6E000E016E010E6FEC09F03FEC
:10250900EF13F0020E5A18D8A48DEF12F08FEF12C4
:10251900F0F1EF12F00B50D96EDA6A040EDF6E009B
:102529000E016E010E6FEC09F03FEF13F05A500CDB
:102539006E0D6A010E0C26000E0D220C040D10D82A
:10254900A4A9EF12F0ABEF12F0B7EF12F00B50D9CC
:102559006EDA6A030EDF6E000E016E010E6FEC0972
:10256900F03FEF13F05A500C6E0D6A010E0C260065
:102579000E0D22020E0C180D10D8A4C6EF12F0C8C9
:10258900EF12F0D4EF12F00B50D96EDA6A040EDFB5
:102599006E000E016E010E6FEC09F03FEF13F05A59
:1025A900500C6E0D6A010E0C26000E0D22030E0C46
:1025B900180D10D8A4E3EF12F0E5EF12F0F1EF12C5
:1025C900F00B50D96EDA6A050EDF6E000E016E014E
:1025D9000E6FEC09F03FEF13F0050E0E18D8A4F8B2
:1025E900EF12F0FAEF12F008EF13F0000E016E018E
:1025F9000E6FEC09F05A6A0001C66B0B50D96EDAFE
:102609006ADF6A3FEF13F00001C651D8A40FEF1338
:10261900F011EF13F01DEF13F0800E096E2A0EFA78
:10262900EC08F0C00E096E200EFAEC08F027EF1343
:10263900F0800E096E200EFAEC08F0C00E096E2A21
:102649000EFAEC08F05A50100DF3507D0F0C6E0C79
:10265900C003F0046A810E056EA5EC0AF05A501009
:102669000DF3508D0F0C6E0CC003F0046AC10E05FA
:102679006EA5EC0AF012001250800B1F6E12501258
:1026890024266E11AE4BEF13F04DEF13F04EEF13FE
:10269900F026802650D8B454EF13F056EF13F06AA1
:1026A900EF13F02628D8A45CEF13F05EEF13F06661
:1026B900EF13F0000E0F6E000E106E000E116E007B
:1026C9000E126E118E126A72EF13F0000E0F6E0069
:1026D9000E106E000E116E000E126E1650800B1F3A
:1026E9001A16501624276E15AE7DEF13F07FEF13DF
:1026F900F080EF13F027802750D8B486EF13F088C5
:10270900EF13F09CEF13F02728D8A48EEF13F09065
:10271900EF13F098EF13F0000E136E000E146E0015
:102729000E156E000E166E158E166AA4EF13F000C4
:102739000E136E000E146E000E156E000E166E133B
:1027490050141015101610D8A4ADEF13F0AFEF13F5
:10275900F0C7EF13F0000E0F6E000E106E000E1191
:102769006E000E126E800E11127F0E12121F501281
:10277900120FC00FF010C010F011C011F012C012EA
:10278900F007EF15F02650D8A4CDEF13F0CFEF13D3
:10279900F0D9EF13F0000E0F6E000E106E000E113F
:1027A9006E000E126E07EF15F0275026C017F018AD
:1027B9006A175E000E185A7F0E1724206E000E1835
:1027C90020216E0FC01BF010C01CF011C01DF012AB
:1027D900C01EF0000E0F6E000E106E000E116E007E
:1027E9000E126E000E226E000E236E000E246E0075
:1027F9000E256E276A39EF14F02750D8B407EF1465
:10280900F009EF14F020EF14F0D8901B361C361D98
:10281900361E36D8900F3610361136123625AE18B8
:10282900EF14F01AEF14F01BEF14F00F80D8902278
:102839003623362436253613501B5C14501C581584
:10284900501D5816501E58D8A02DEF14F02FEF1414
:10285900F038EF14F0258C13501B5E14501C5A15D8
:10286900501D5A16501E5A272A190E27643FEF1475
:10287900F041EF14F001EF14F01B501C101D101E55
:1028890010D8B44AEF14F04CEF14F064EF14F022AE
:102899008064EF14F0D8900F3610361136123625B1
:1028A900AE59EF14F05BEF14F05CEF14F00F80D821
:1028B9009022362336243625362006D8A021061143
:1028C900AE69EF14F06BEF14F04FEF14F0276A259F
:1028D900AE71EF14F073EF14F097EF14F0FF0E22BE
:1028E90014176EFF0E2314186EFF0E2414196E7F31
:1028F9000E25141A6E1750181019101A10D8B4880A
:10290900EF14F08AEF14F08EEF14F0010E276E9792
:10291900EF14F00FA093EF14F095EF14F097EF1464
:10292900F08AEF14F02750D8B49DEF14F09FEF14FC
:10293900F0C3EF14F0010E0F26000E10221122121F
:102949002212A0AAEF14F0ACEF14F0C3EF14F00FA9
:10295900C017F010C018F011C019F012C01AF01AFF
:10296900341A3219321832173217C00FF018C01042
:10297900F019C011F01AC012F0204A212A21BECE46
:10298900EF14F0215008E12028D8A0CEEF14F0D0A0
:10299900EF14F0DBEF14F0000E216E2068000E0F2B
:1029A9006E000E106E000E116E000E126E21BEE842
:1029B900EF14F0215006E12004D8B0E6EF14F0E856
:1029C900EF14F0F5EF14F0000E216E000E206E00EA
:1029D9000E0F6E000E106E000E116E000E126E1F9D
:1029E9006A20C026F026A0FCEF14F0FEEF14F001D7
:1029F900EF15F0118E02EF15F0119ED890263012C6
:102A09006EBBEF13F01200106E0001C551D8A4106F
:102A1900EF15F012EF15F02FEF15F0C751D00F5F3A
:102A29006E5F500A0DF350C825D00F5F6ECA51D0A2
:102A39000F5E6E5E500A0DF350CB25D00F5E6ECD42
:102A490051D00F5D6E5D500A0DF350CE25D00F5D4C
:102A59006E010EC56F1004D8A435EF15F037EF15C8
:102A6900F071EF15F0C451D8A43DEF15F03FEF1503
:102A7900F04AEF15F05F2A180E5F18D8A447EF1532
:102A8900F049EF15F04AEF15F05F6AC405D8A45074
:102A9900EF15F052EF15F05DEF15F05E2A3C0E5E72
:102AA90018D8A45AEF15F05CEF15F05DEF15F05E3C
:102AB9006A020EC419D8A464EF15F066EF15F07117
:102AC900EF15F05D2A3C0E5D18D8A46EEF15F07075
:102AD900EF15F071EF15F05D6A020E1018D8A478A1
:102AE900EF15F07AEF15F085EF15F0C42B030EC43E
:102AF90019D8A482EF15F084EF15F085EF15F0C40D
:102B09006B040E1018D8A48CEF15F08EEF15F0F4A5
:102B1900EF15F05FC001F0026A000E046E0A0E03A1
:102B29006EB0EC0BF001C00CF002C00DF05FC001FB
:102B3900F0026A000E046E0A0E036E07EC0CF00137
:102B490038F00B0C105F6E5FC002F0020E21EC0929
:102B5900F05EC001F0026A000E046E0A0E036EB048
:102B6900EC0BF001C00CF002C00DF05EC001F002E8
:102B79006A000E046E0A0E036E07EC0CF00138F0C1
:102B89000B0C105E6E5EC002F0010E21EC09F05DC7
:102B9900C001F0026A000E046E0A0E036EB0EC0B5F
:102BA900F001C00CF002C00DF05DC001F0026A0036
:102BB9000E046E0A0E036E07EC0CF00138F00B0CD4
:102BC900105D6E5DC002F0000E21EC09F00B50D9CA
:102BD9006EDA6A010EDF6E0001C56BC3EF17F005EF
:102BE9000E1018D8A4FBEF15F0FDEF15F0FFEF1547
:102BF900F0EBEF15F0F30E036E2F0E046E800E0549
:102C09006EA5EC0AF0BDC00CF0BEC00DF0BFC00E41
:102C1900F0C0C00FF00001BD2B000EBE23BF23C0C2
:102C2900230F500E1009E1F40E0C5C010E0D58D85B
:102C3900B021EF16F023EF16F08EEF16F0C00E0953
:102C49006E200EFAEC08F0C10E096E5FC001F002A9
:102C59006A000E046E0A0E036E07EC0CF001503088
:102C69000FFAEC08F0C20E096E5FC001F0026A00AB
:102C79000E046E0A0E036EB0EC0BF00150300FFA21
:102C8900EC08F0C30E096E3A0EFAEC08F0C40E090E
:102C99006E5EC001F0026A000E046E0A0E036E0732
:102CA900EC0CF00150300FFAEC08F0C50E096E5E1D
:102CB900C001F0026A000E046E0A0E036EB0EC0B3E
:102CC900F00150300FFAEC08F0C60E096E3A0EFA10
:102CD900EC08F0C70E096E5DC001F0026A000E042F
:102CE9006E0A0E036E07EC0CF00150300FFAEC0877
:102CF900F0C80E096E5DC001F0026A000E046E0A8A
:102D09000E036EB0EC0BF00150300FFAEC08F0AC8A
:102D1900EF17F0C451D8A494EF16F096EF16F0ED22
:102D2900EF16F0C00E096E200EFAEC08F0C10E097C
:102D39006E200EFAEC08F0C20E096E200EFAEC08AD
:102D4900F0C30E096E3A0EFAEC08F0C40E096E5E75
:102D5900C001F0026A000E046E0A0E036E07EC0C45
:102D6900F00150300FFAEC08F0C50E096E5EC00193
:102D7900F0026A000E046E0A0E036EB0EC0BF0014D
:102D890050300FFAEC08F0C60E096E3A0EFAEC084C
:102D9900F0C70E096E5DC001F0026A000E046E0AEA
:102DA9000E036E07EC0CF00150300FFAEC08F0C876
:102DB9000E096E5DC001F0026A000E046E0A0E0370
:102DC9006EB0EC0BF00150300FFAEC08F0ACEF17D5
:102DD900F0C405D8A4F3EF16F0F5EF16F04CEF1791
:102DE900F0C00E096E200EFAEC08F0C10E096E5FF4
:102DF900C001F0026A000E046E0A0E036E07EC0CA5
:102E0900F00150300FFAEC08F0C20E096E5FC001F4
:102E1900F0026A000E046E0A0E036EB0EC0BF001AC
:102E290050300FFAEC08F0C30E096E3A0EFAEC08AE
:102E3900F0C40E096E200EFAEC08F0C50E096E20DA
:102E49000EFAEC08F0C60E096E3A0EFAEC08F0C755
:102E59000E096E5DC001F0026A000E046E0A0E03CF
:102E69006E07EC0CF00150300FFAEC08F0C80E09AF
:102E79006E5DC001F0026A000E046E0A0E036EB0A8
:102E8900EC0BF00150300FFAEC08F0ACEF17F00240
:102E99000EC419D8A453EF17F055EF17F0ACEF177C
:102EA900F0C00E096E200EFAEC08F0C10E096E5F33
:102EB900C001F0026A000E046E0A0E036E07EC0CE4
:102EC900F00150300FFAEC08F0C20E096E5FC00134
:102ED900F0026A000E046E0A0E036EB0EC0BF001EC
:102EE90050300FFAEC08F0C30E096E3A0EFAEC08EE
:102EF900F0C40E096E5EC001F0026A000E046E0A8B
:102F09000E036E07EC0CF00150300FFAEC08F0C517
:102F19000E096E5EC001F0026A000E046E0A0E030D
:102F29006EB0EC0BF00150300FFAEC08F0C60E0948
:102F39006E3A0EFAEC08F0C70E096E200EFAEC088C
:102F4900F0C80E096E200EFAEC08F0ACEF17F0E8A5
:102F59000E0001BD1909E1030EBE19BF11C011D838
:102F6900A4B9EF17F0BBEF17F0C3EF17F0000EBDD0
:102F79006F000EBE6F000EBF6F000EC06F12000013
:102F8900232054696D652020202020455620535068
:102F9900200A0D004E6F204461746120666F756EC2
:102FA900642020202000636C65617220737563635F
:102FB900657373202020002020202020202020203D
:102FC9002020202020202000232054696D65202006
:102FD90020202045562053500054696D652020203B
:102FE900202020455620205350002048483A4D4D76
:062FF9003A5353200000D2
:020000040020DA
:08000000FFFFFFFFFFFFFFFF00
:020000040030CA
:0E000000FF071F1FFF8285FF0FC00FE00F409C
:00000001FF
